{
  "abi": [
    {
      "inputs": [],
      "stateMutability": "nonpayable",
      "type": "constructor"
    },
    {
      "anonymous": false,
      "inputs": [
        {
          "indexed": true,
          "internalType": "address",
          "name": "previousOwner",
          "type": "address"
        },
        {
          "indexed": true,
          "internalType": "address",
          "name": "newOwner",
          "type": "address"
        }
      ],
      "name": "OwnershipTransferred",
      "type": "event"
    },
    {
      "inputs": [],
      "name": "deposit",
      "outputs": [],
      "stateMutability": "payable",
      "type": "function"
    },
    {
      "inputs": [
        {
          "internalType": "address",
          "name": "_address",
          "type": "address"
        }
      ],
      "name": "getDepositByAddress",
      "outputs": [
        {
          "internalType": "uint256",
          "name": "",
          "type": "uint256"
        }
      ],
      "stateMutability": "view",
      "type": "function"
    },
    {
      "inputs": [],
      "name": "owner",
      "outputs": [
        {
          "internalType": "address",
          "name": "",
          "type": "address"
        }
      ],
      "stateMutability": "view",
      "type": "function"
    },
    {
      "inputs": [],
      "name": "renounceOwnership",
      "outputs": [],
      "stateMutability": "nonpayable",
      "type": "function"
    },
    {
      "inputs": [
        {
          "internalType": "address",
          "name": "newOwner",
          "type": "address"
        }
      ],
      "name": "transferOwnership",
      "outputs": [],
      "stateMutability": "nonpayable",
      "type": "function"
    },
    {
      "inputs": [],
      "name": "withdraw",
      "outputs": [],
      "stateMutability": "nonpayable",
      "type": "function"
    },
    {
      "inputs": [],
      "name": "withdrawalBlock",
      "outputs": [
        {
          "internalType": "uint256",
          "name": "",
          "type": "uint256"
        }
      ],
      "stateMutability": "view",
      "type": "function"
    }
  ],
  "bytecode": {
    "object": "0x60a060405234801561001057600080fd5b5061001a3361002d565b61002543600561007d565b6080526100a4565b600080546001600160a01b038381166001600160a01b0319831681178455604051919092169283917f8be0079c531659141344cd1fd0a4f28419497f9722a3daafe3b4186f6b6457e09190a35050565b8082018082111561009e57634e487b7160e01b600052601160045260246000fd5b92915050565b6080516104586100c56000396000818160fc015261017801526104586000f3fe6080604052600436106100705760003560e01c80638a2f68911161004e5780638a2f6891146100ea5780638da5cb5b1461011e578063d0e30db014610146578063f2fde38b1461014e57600080fd5b80633ccfd60b146100755780633da034531461008c578063715018a6146100d5575b600080fd5b34801561008157600080fd5b5061008a61016e565b005b34801561009857600080fd5b506100c26100a73660046103cb565b6001600160a01b031660009081526001602052604090205490565b6040519081526020015b60405180910390f35b3480156100e157600080fd5b5061008a610271565b3480156100f657600080fd5b506100c27f000000000000000000000000000000000000000000000000000000000000000081565b34801561012a57600080fd5b506000546040516001600160a01b0390911681526020016100cc565b61008a610285565b34801561015a57600080fd5b5061008a6101693660046103cb565b6102ab565b610176610321565b7f00000000000000000000000000000000000000000000000000000000000000004310156101e35760405162461bcd60e51b8152602060048201526015602482015274546f6f206561726c7920746f20776974686472617760581b60448201526064015b60405180910390fd5b604051600090339047908381818185875af1925050503d8060008114610225576040519150601f19603f3d011682016040523d82523d6000602084013e61022a565b606091505b505090508061026e5760405162461bcd60e51b815260206004820152601060248201526f2a3930b739b332b9103330b4b632b21760811b60448201526064016101da565b50565b610279610321565b610283600061037b565b565b33600090815260016020526040812080543492906102a49084906103fb565b9091555050565b6102b3610321565b6001600160a01b0381166103185760405162461bcd60e51b815260206004820152602660248201527f4f776e61626c653a206e6577206f776e657220697320746865207a65726f206160448201526564647265737360d01b60648201526084016101da565b61026e8161037b565b6000546001600160a01b031633146102835760405162461bcd60e51b815260206004820181905260248201527f4f776e61626c653a2063616c6c6572206973206e6f7420746865206f776e657260448201526064016101da565b600080546001600160a01b038381166001600160a01b0319831681178455604051919092169283917f8be0079c531659141344cd1fd0a4f28419497f9722a3daafe3b4186f6b6457e09190a35050565b6000602082840312156103dd57600080fd5b81356001600160a01b03811681146103f457600080fd5b9392505050565b8082018082111561041c57634e487b7160e01b600052601160045260246000fd5b9291505056fea264697066735822122080c5d0f2d39559e192755ac0f6b16c7ea9de306ce0647ce1a2ed166a7daa846064736f6c63430008110033",
    "linkReferences": {}
  },
  "methodIdentifiers": {
    "deposit()": "d0e30db0",
    "getDepositByAddress(address)": "3da03453",
    "owner()": "8da5cb5b",
    "renounceOwnership()": "715018a6",
    "transferOwnership(address)": "f2fde38b",
    "withdraw()": "3ccfd60b",
    "withdrawalBlock()": "8a2f6891"
  },
  "id": 16
}